:100000000C943F000C9467000C9467000C946700FC
:100010000C9467000C9467000C9467000C946700C4
:100020000C9467000C9467000C9467000C946700B4
:100030000C9467000C941B040C9467000C946700EC
:100040000C9467000C9467000C9467000C94670094
:100050000C9467000C9467000C9467000C94670084
:100060000C9467000C9467000C9467000C94ED03EB
:100070000C94C7030C9467000C9467004907112483
:100080001FBECFEFCDBFDFE3DEBF1CE3A0E0BCE3CC
:10009000E4EBF0E102C005900D92AE30B107D9F764
:1000A0002CE3AEE0BCE301C01D92A73BB207E1F731
:1000B00010E0CFE3D0E004C02197FE010E94D507F5
:1000C000CE33D107C9F70E9443040C94EA070C947D
:1000D0000000FC01508D418D252F30E0842F90E0F1
:1000E000821B930B541710F0CF9608950197089533
:1000F000FC0196898789981761F0A789AE0FBF2FF9
:10010000B11D5B968C9197899F5F9F73978B90E051
:1001100008958FEF9FEF0895FC01968987899817BE
:1001200031F08789E80FF11D838D90E008958FEFFE
:100130009FEF0895FC0196892789892F90E0805CC4
:100140009F4F821B91098F7399270895CF93DF9357
:10015000EC01E881F9810284F385E02D0995EC85B5
:10016000FD8586818F738683EC85FD8585818F75FE
:1001700085838F898E8B1D8ADF91CF910895CF93D0
:10018000DF93FC01908D818DC485D585981306C0C1
:100190008D818F7D8D83DF91CF910895A18DAE0FDD
:1001A000BF2FB11DA55ABF4F9C91818D8F5F8F735B
:1001B000818F80E48C83A485B58512969C93908D65
:1001C000818D9813E8CF0484F585E02D85818F7D9E
:1001D0008583E1CFDC011C96ED91FC910FB607FE03
:1001E00007C0258125FF04C020911101222321F0A1
:1001F000248125FD0C94BF0008950F931F93CF9386
:10020000DF93EC0181E08D8B988D898D981316C05A
:10021000EC85FD85848185FF11C06283EC85FD85B9
:1002200080E48483EC85FD8585818F7D858381E0F5
:1002300090E0DF91CF911F910F910895062F188DB7
:100240001F5F1F73898D811304C0CE010E94EA00D5
:10025000F9CFE88DEC0FFD2FF11DE55AFF4F00831C
:10026000188FEC85FD8585818062E0CFCF93DF9389
:10027000EC018D89882361F0EC85FD85858185FD04
:1002800003C0848186FD04C0CE010E94EA00F4CF41
:10029000DF91CF910895AF92BF92CF92DF92EF920C
:1002A000FF920F931F93CF93DF936C017B018B0120
:1002B000040F151FEB015E01AE18BF08C017D10770
:1002C00059F06991D601ED91FC910190F081E02DFA
:1002D000C6010995892B79F7C501DF91CF911F914F
:1002E0000F91FF90EF90DF90CF90BF90AF90089567
:1002F00081E008956FB7F89420910E3C30910F3C47
:100300004091103C5091113C80914A0A90914B0AC7
:100310007091460A70FF08C0FC01EE27EF2B21F414
:100320002F5F3F4F4F4F5F4F6FBFFC01EE0FEF2F1F
:10033000EE1FFF0BF195BC01A3E076956795AA959A
:10034000E1F7E60FF71FBC01B5E076956795BA9522
:10035000E1F7E61BF70B892F99278695E81BF90B28
:10036000A8EEB3E00E94C2076E0F7F1F811D911D92
:1003700008958F929F92AF92BF92CF92DF92EF92A9
:10038000FF924B015C010E947A016B017C01A8EE97
:10039000B3E0A50194010E94C207C60ED71EE81E55
:1003A000F91EC616D706E806F90618F40E947A0167
:1003B000F8CF0E947A016C157D058E059F05C8F364
:1003C000FF90EF90DF90CF90BF90AF909F908F9075
:1003D0000895DC01ED91FC910684F785E02D23E082
:1003E00030E00994FC0101900020E9F73197AF015A
:1003F000481B590BBC018CE19CE30C944B018F9280
:100400009F92AF92BF920F931F93CF93DF93CDB77D
:10041000DEB7A197CDBFDEBF19A2423008F44AE093
:100420008E010F5D1F4F842E912CB12CA12CA501A4
:1004300094010E948107E62FB901CA01EA30DCF479
:10044000E05DD801EE938D01232B242B252B79F72A
:1004500090E080E0109719F0CD010E94F201A19682
:10046000CDBFDEBFDF91CF911F910F91BF90AF90B5
:100470009F908F900895E95CE4CFCF92DF92EF9246
:10048000FF92CF93DF936B017C016DE28CE19CE3E3
:100490000E94FD00EC0166277727CB016C197D09CE
:1004A0008E099F094AE00E94FF018C0F9D1FDF917A
:1004B000CF91FF90EF90DF90CF900895CF93DF938F
:1004C0000E94F201EC0182E290E90E94F2018C0F9D
:1004D0009D1FDF91CF910895BC01990F880B990B57
:1004E00097FD0C943D024AE00C94FF01282F30E068
:1004F0008C30A8F4F901EA5EFF4680818F3F79F0E5
:100500002C513047D901EC91B0E2EB9FF00111245E
:10051000FC5F9085982381E019F480E008958FEFC7
:100520000895CF93DF938C30D8F590E0DC01AA5E7C
:10053000BF462C912F3FA1F1FC01EC51F047E08127
:1005400030E2E39FF0011124FC5F61112CC026838F
:100550003081232399F4EC01C852D0472881309789
:1005600051F12F3F41F17096E20FF11D3FB7F89422
:100570002081611123C0277F20833FBF865F9F4674
:10058000FC018081882361F0803151F48C918530A9
:1005900008F0880F9091010A809589238093010AC1
:1005A000DF91CF910895643021F427836481622321
:1005B000CFCF2583CDCFF0E0E0E0D8CF2860DCCFEF
:1005C000CF93DF938C3098F490E0FC01EA5EFF4615
:1005D00020812F3F61F0FC01EC51F047E08130E2D7
:1005E000E39FF0011124FC5F613021F42183DF914E
:1005F000CF91089588529047EC01A881AF3F81F0D8
:10060000CF014096A80FB92FB11D9FB7F894228350
:100610008C91623041F488608C9325839FBFE7CF33
:10062000B0E0A0E0F2CF877F8C932683F7CF8F9244
:100630009F92AF92BF92DF92EF92FF920F931F9320
:10064000CF93DF93EC014A015B01D22E8D89882381
:1006500039F0E881F9810088F189E02DCE01099512
:100660000C8910E0E12C811428EB92062BE0A20605
:10067000B10430F0B694A7949794879442E0E42EA6
:100680001D8AF090251160E078E689E899E0A501DF
:1006900094010E948107AF2DFF0CBB0BBC5F0E9431
:1006A000CD07DC01CB012BE0B595A79597958795F4
:1006B0002A95D1F7FFB6F894EC85FD85009721E0E7
:1006C000A207B10524F08FEF9FEFA0E0B0E0808794
:1006D0009187EC85FD85D782EC85FD858681897FB4
:1006E000806C8E298683EC85FD8585818068858375
:1006F000909101028B89809589239801220F331FE5
:10070000020F131FC00FD11F9889892B80930102FC
:1007100062E08E850E94E00261E08F850E94E00227
:10072000FFBEDF91CF911F910F91FF90EF90DF906F
:10073000BF90AF909F908F90089593EE980F923056
:1007400018F0843078F48C5F8093060681E0809303
:10075000080680910B0680FFFCCF809110069091D7
:10076000110608958B3061F098EF980F933010F4D4
:100770008750EACF863031F0873031F48BE0E4CF18
:1007800080E0E2CF8AE0E0CF8FEF9FEF08951F92E5
:100790000F920FB60F9211242F933F934F935F93B5
:1007A0006F937F938F939F93AF93BF93EF93FF9339
:1007B0008CE19CE30E94BF00FF91EF91BF91AF914C
:1007C0009F918F917F916F915F914F913F912F9169
:1007D0000F900FBE0F901F9018951F920F920FB69B
:1007E0000F9211242F938F939F93EF93FF93E09198
:1007F000283CF091293C818181FD1BC09081809132
:10080000323C8F5F8F732091333C821741F0E0912F
:10081000323CF0E0E45EF34C938F8093323CFF91E6
:10082000EF919F918F912F910F900FBE0F901F907E
:1008300018958081F4CF1F920F920FB60F9211245A
:100840008F939F93AF93BF9380910E3C90910F3CF9
:10085000A091103CB091113C0196A11DB11D809357
:100860000E3C90930F3CA093103CB093113C81E060
:100870008093460ABF91AF919F918F910F900FBEC9
:100880000F901F90189588ED90E084BF90936100C1
:1008900083E5809302068EE08093050680E28093D4
:1008A00003068091000681608093000681E08093BA
:1008B000030A9EEF9093260A9093270A9BE0909359
:1008C000000A2FE037E220934C0A30934D0A8093C0
:1008D000450A1092410A83E08093400A789461E0CF
:1008E00081E00E94E00261E082E00E94E00261E0BB
:1008F00083E00E94E00261E087E00E94E00261E0A4
:100900008AE00E94E00281E18093010A8FEF8093E8
:10091000260A8093270A85E08093000A60E086E03B
:100920000E94E00260E080E00E94E00261E081E07D
:100930000E94910261E082E00E94910261E083E006
:100940000E94910261E087E00E94910260910A3C5E
:100950008AE00E94910240E052EC61E070E08CE19C
:100960009CE30E94E90185E290E90E945E0281E336
:1009700090E90E945E0281E490E90E945E028AE4AE
:1009800090E90E945E0286E590E90E945E02C5E061
:10099000D0E060E081E00E9491026FE570E080E0CD
:1009A00090E00E94B90161E081E00E94910260E064
:1009B00082E00E9491026FE570E080E090E00E948A
:1009C000B90161E082E00E94910260E083E00E9450
:1009D00091026FE570E080E090E00E94B90161E073
:1009E00083E00E94910260E087E00E9491026FE53F
:1009F00070E080E090E00E94B9016FE570E080E077
:100A000090E00E94B90161E087E00E94910260E0FD
:100A100083E00E9491026FE570E080E090E00E9428
:100A2000B90161E083E00E94910260E082E00E94EF
:100A300091026FE570E080E090E00E94B90161E012
:100A400082E00E94910260E081E00E9491026FE5E5
:100A500070E080E090E00E94B90161E081E00E94D6
:100A6000910265E070E080E090E00E94B90121977A
:100A700009F08FCF83E0282E312C96E4C92ED12C9B
:100A8000E12CF12C01E010E0C2E0D0E02EE7822E54
:100A9000912CA12CB12C69E170E080E090E00E94E3
:100AA000B90180910A3C90910B3CA0910C3CB09113
:100AB0000D3C892B8A2B8B2B09F4ABC089E00E945B
:100AC0009D03BC01990F880B990B6093183C7093A0
:100AD000193C80931A3C90931B3C40900A3C5090E8
:100AE0000B3C60900C3C70900D3C2091063C30918A
:100AF000073C4091083C5091093C241935094609AE
:100B000057090E9471072FEF33E040E050E00E9448
:100B1000A307420E531E641E751E4092143C509251
:100B2000153C6092163C7092173C5090143C652C1A
:100B30007090153C61E08AE00E94E00260E01614CB
:100B4000170434F46FEF661671040CF46BC061E0A7
:100B50008AE00E9491022091023C3091033C409136
:100B6000043C5091053CA9E0B0E00E94C2072B0173
:100B70003C0188E00E949D03BC01990F880B990BF2
:100B8000640D751D861D971D2AE030E040E050E0A1
:100B90000E9481072093023C3093033C4093043C25
:100BA0005093053C8091003C9091013C2D30A3E096
:100BB0003A0741055105F0F5283CB2E03B074105F5
:100BC000510508F022C12A3632404105510508F08E
:100BD0003CC102970CF481C00093003C1093013C8F
:100BE00061E081E00E94910261E082E00E94910256
:100BF00061E083E00E94910261E087E00E9491023F
:100C000010920A3C10920B3C10920C3C10920D3C3E
:100C100064C01092143C1092153C1092163C109235
:100C2000173C83CF5092290A8091010A80618093FA
:100C3000010A91CF2036A3E03A074105510520F57E
:100C4000203333404105510508F4C1C006970CF428
:100C500044C0A5E0B0E0A093003CB093013C60E04C
:100C600081E00E94910260E082E00E94910260E0D7
:100C700083E00E94910261E087E00E94910287E395
:100C800090E0A0E0B0E021C02115344041055105BD
:100C900020F5079714F186E090E08093003C909354
:100CA000013C60E081E00E94910260E082E00E94ED
:100CB000910260E083E00E94910260E087E00E9480
:100CC000910282E390E0A0E0B0E08093063C909334
:100CD000073CA093083CB093093C8091003C909164
:100CE000013C0297D1F48091123C9091133C9C01FD
:100CF0002F5F3F4F2093123C3093133C4A976CF088
:100D000081E00E94760261E0811160E081E00E9452
:100D100091021092123C1092133C85E790E90E94D8
:100D2000F20186E00E947602082E000C990B0E94C8
:100D30006C028BE790E90E94F20180E00E9476024B
:100D4000082E000C990B0E946C0283E890E90E9427
:100D5000F2016091023C7091033C8091043C9091BF
:100D6000053C4AE00E94FF018FE890E90E94F201F1
:100D70006091183C7091193C80911A3C90911B3CF9
:100D80004AE00E94FF018AE990E90E94F201609125
:100D9000143C7091153C8091163C9091173C4AE0B0
:100DA0000E94FF0182EA90E90E94F2016091003CFA
:100DB0007091013C072E000C880B990B97FF65C0C2
:100DC0000E943D0282E290E90E94F20164CE059702
:100DD0000CF483CFA4E0B0E0A093003CB093013CBE
:100DE00060E081E00E94910260E082E00E94910256
:100DF00061E083E00E94910261E087E00E9491023D
:100E00008DE390E0A0E0B0E060CF04970CF465CFF4
:100E10002092003C3092013C60E081E00E9491020F
:100E200061E082E00E94910261E083E00E94910211
:100E300061E087E00E949102C092063CD092073C9C
:100E4000E092083CF092093C48CF03970CF445CF60
:100E5000C093003CD093013C61E082E00E9491028B
:100E600061E083E00E94910261E087E00E949102CC
:100E700060E081E00E9491028092063C9092073CE3
:100E8000A092083CB092093C28CF4AE00E94FF01A2
:100E900099CFECE1FCE31282138288EE93E0A0E0AC
:100EA000B0E084839583A683B78384EF9FE8808333
:100EB000918380E098E08487958784E0868785E049
:100EC0008787108A89E0818B88E0828B81E0838B21
:100ED000148A158A168A178A108E118E8CE1828FD9
:100EE0000895DB018F939F930E94C207BF91AF913A
:100EF000A29F800D911DA39F900DB29F900D112474
:100F00000895A1E21A2EAA1BBB1BFD010DC0AA1F4A
:100F1000BB1FEE1FFF1FA217B307E407F50720F062
:100F2000A21BB30BE40BF50B661F771F881F991FDD
:100F30001A9469F760957095809590959B01AC0126
:100F4000BD01CF010895052E97FB1EF400940E9469
:100F5000BA0757FD07D00E94810707FC03D04EF463
:100F60000C94BA0750954095309521953F4F4F4FBF
:100F70005F4F089590958095709561957F4F8F4F45
:100F80009F4F08950E94DB07A59F900DB49F900D81
:100F9000A49F800D911D11240895B7FF0C94C207E2
:100FA0000E94C207821B930B0895EE0FFF1F05904E
:100FB000F491E02D0994A29FB001B39FC001A39FBB
:100FC000700D811D1124911DB29F700D811D112482
:080FD000911D0895F894FFCF74
:100FD80004050607030201000102030000000000E7
:100FE800010101010000000000000000FD004B01AC
:100FF8009A0078008C003601E9011703A6007801F1
:1010080069001010000000101010000010001020DF
:10101800408008040201020408010D0A00537461AB
:101028007274696E672075700050415052412033C8
:10103800314A414E32303231005043422076302E10
:101048003200417454696E79203136303400286397
:10105800292054657472612042696F204469737451
:1010680072696275746564203230323100667320AB
:101078003D200020657073203D200020426174747B
:10108800657279203D200020726177414443203DFC
:1010980020002070776D203D200020426174746527
:0C10A8007279205374617465203D2000B3
:0E10B4000700FF0300007E000000FF000000A8
:00000001FF
